{
  "contractName": "LUXCoinCrowdsale",
  "abi": [
    {
      "constant": true,
      "inputs": [],
      "name": "rate",
      "outputs": [
        {
          "name": "",
          "type": "uint256"
        }
      ],
      "payable": false,
      "stateMutability": "view",
      "type": "function"
    },
    {
      "constant": true,
      "inputs": [],
      "name": "endTime",
      "outputs": [
        {
          "name": "",
          "type": "uint256"
        }
      ],
      "payable": false,
      "stateMutability": "view",
      "type": "function"
    },
    {
      "constant": true,
      "inputs": [],
      "name": "cap",
      "outputs": [
        {
          "name": "",
          "type": "uint256"
        }
      ],
      "payable": false,
      "stateMutability": "view",
      "type": "function"
    },
    {
      "constant": true,
      "inputs": [],
      "name": "weiRaised",
      "outputs": [
        {
          "name": "",
          "type": "uint256"
        }
      ],
      "payable": false,
      "stateMutability": "view",
      "type": "function"
    },
    {
      "constant": true,
      "inputs": [],
      "name": "wallet",
      "outputs": [
        {
          "name": "",
          "type": "address"
        }
      ],
      "payable": false,
      "stateMutability": "view",
      "type": "function"
    },
    {
      "constant": true,
      "inputs": [],
      "name": "startTime",
      "outputs": [
        {
          "name": "",
          "type": "uint256"
        }
      ],
      "payable": false,
      "stateMutability": "view",
      "type": "function"
    },
    {
      "constant": false,
      "inputs": [
        {
          "name": "beneficiary",
          "type": "address"
        }
      ],
      "name": "buyTokens",
      "outputs": [],
      "payable": true,
      "stateMutability": "payable",
      "type": "function"
    },
    {
      "constant": true,
      "inputs": [],
      "name": "hasEnded",
      "outputs": [
        {
          "name": "",
          "type": "bool"
        }
      ],
      "payable": false,
      "stateMutability": "view",
      "type": "function"
    },
    {
      "constant": true,
      "inputs": [],
      "name": "token",
      "outputs": [
        {
          "name": "",
          "type": "address"
        }
      ],
      "payable": false,
      "stateMutability": "view",
      "type": "function"
    },
    {
      "inputs": [
        {
          "name": "_startTime",
          "type": "uint256"
        },
        {
          "name": "_endTime",
          "type": "uint256"
        },
        {
          "name": "_rate",
          "type": "uint256"
        },
        {
          "name": "_cap",
          "type": "uint256"
        },
        {
          "name": "_wallet",
          "type": "address"
        },
        {
          "name": "_token",
          "type": "address"
        }
      ],
      "payable": false,
      "stateMutability": "nonpayable",
      "type": "constructor"
    },
    {
      "payable": true,
      "stateMutability": "payable",
      "type": "fallback"
    },
    {
      "anonymous": false,
      "inputs": [
        {
          "indexed": true,
          "name": "purchaser",
          "type": "address"
        },
        {
          "indexed": true,
          "name": "beneficiary",
          "type": "address"
        },
        {
          "indexed": false,
          "name": "value",
          "type": "uint256"
        },
        {
          "indexed": false,
          "name": "amount",
          "type": "uint256"
        }
      ],
      "name": "TokenPurchase",
      "type": "event"
    }
  ],
  "bytecode": "0x6060604052341561000f57600080fd5b60405160c0806105f0833981016040528080519190602001805191906020018051919060200180519190602001805191906020018051915083905086868685854285101561005c57600080fd5b8484101561006957600080fd5b6000831161007657600080fd5b600160a060020a038216151561008b57600080fd5b600160a060020a03811615156100a057600080fd5b60019490945560029290925560045560038054600160a060020a03928316600160a060020a0319918216179091556000805492909316911617815581116100e657600080fd5b6006555050505050506104f2806100fe6000396000f3006060604052600436106100985763ffffffff7c01000000000000000000000000000000000000000000000000000000006000350416632c4e722e81146100a35780633197cbb6146100c8578063355274ea146100db5780634042b66f146100ee578063521eb2731461010157806378e9792514610130578063ec8ac4d814610143578063ecb70fb714610157578063fc0c546a1461017e575b6100a133610191565b005b34156100ae57600080fd5b6100b66102d3565b60405190815260200160405180910390f35b34156100d357600080fd5b6100b66102d9565b34156100e657600080fd5b6100b66102df565b34156100f957600080fd5b6100b66102e5565b341561010c57600080fd5b6101146102eb565b604051600160a060020a03909116815260200160405180910390f35b341561013b57600080fd5b6100b66102fa565b6100a1600160a060020a0360043516610191565b341561016257600080fd5b61016a610300565b604051901515815260200160405180910390f35b341561018957600080fd5b610114610321565b600080600160a060020a03831615156101a957600080fd5b6101b1610330565b15156101bc57600080fd5b3491506101c88261035f565b6005549091506101de908363ffffffff61041316565b60055560008054600160a060020a0316906340c10f199085908490604051602001526040517c010000000000000000000000000000000000000000000000000000000063ffffffff8516028152600160a060020a0390921660048301526024820152604401602060405180830381600087803b151561025c57600080fd5b6102c65a03f1151561026d57600080fd5b505050604051805190505082600160a060020a031633600160a060020a03167f623b3804fa71d67900d064613da8f94b9617215ee90799290593e1745087ad18848460405191825260208201526040908101905180910390a36102ce61042d565b505050565b60045481565b60025481565b60065481565b60055481565b600354600160a060020a031681565b60015481565b600654600554600091901015808061031b575061031b610463565b91505090565b600054600160a060020a031681565b60008060065461034b3460055461041390919063ffffffff16565b1115905080801561031b575061031b61046b565b60006001544210158015610379575060015462093a800142105b1561039c57600454610395908390601e0263ffffffff61049b16565b905061040e565b60015462093a800142101580156103b95750600154621275000142105b156103d55760045461039590839060140263ffffffff61049b16565b600154621275000142101580156103f25750600154621baf800142105b1561040e57600454610395908390600f0263ffffffff61049b16565b919050565b60008282018381101561042257fe5b8091505b5092915050565b600354600160a060020a03163480156108fc0290604051600060405180830381858888f19350505050151561046157600080fd5b565b600254421190565b6000806000600154421015801561048457506002544211155b9150503415158180156104945750805b9250505090565b6000808315156104ae5760009150610426565b508282028284828115156104be57fe5b041461042257fe00a165627a7a723058204701ecfe9a0cbbee0029428bf9b67f7273b7253536517865235544820f150f2e0029",
  "source": "pragma solidity ^0.4.17;\n\n// import './Crowdsale.sol';\nimport './LUXCoin.sol';\n// import \"zeppelin-solidity/contracts/token/ERC20/MintableToken.sol\";\nimport \"./CappedCrowdsale.sol\";\n// import \"zeppelin-solidity/contracts/crowdsale/Crowdsale.sol\";\n\ncontract LUXCoinCrowdsale is CappedCrowdsale {\n  function LUXCoinCrowdsale(uint256 _startTime, uint256 _endTime, uint256 _rate, uint256 _cap, address _wallet, MintableToken _token) public \n    CappedCrowdsale(_cap)\n    Crowdsale(_startTime, _endTime, _rate, _wallet, _token)\n  {\n  }\n  function createTokenContract() internal returns (MintableToken) {\n    return new LUXCoin();\n  }\n}",
  "sourcePath": "/data/ContractForLUX/contracts/LUXCoinCrowdsale.sol",
  "compiler": {
    "name": "solc",
    "version": "0.4.18+commit.9cf6e910.Emscripten.clang"
  },
  "schemaVersion": "1.0.1",
  "updatedAt": "2018-02-04T21:29:26.064Z"
}